{
  "_format": "hh-sol-artifact-1",
  "contractName": "PenaltyReserve",
  "sourceName": "contracts/PenaltyReserve.sol",
  "abi": [
    {
      "inputs": [
        {
          "internalType": "address",
          "name": "_token",
          "type": "address"
        },
        {
          "internalType": "address",
          "name": "initialOwner",
          "type": "address"
        }
      ],
      "stateMutability": "nonpayable",
      "type": "constructor"
    },
    {
      "inputs": [],
      "name": "FactoryAlreadySet",
      "type": "error"
    },
    {
      "inputs": [],
      "name": "InvalidAddress",
      "type": "error"
    },
    {
      "inputs": [],
      "name": "NativeTransferFailed",
      "type": "error"
    },
    {
      "inputs": [
        {
          "internalType": "address",
          "name": "owner",
          "type": "address"
        }
      ],
      "name": "OwnableInvalidOwner",
      "type": "error"
    },
    {
      "inputs": [
        {
          "internalType": "address",
          "name": "account",
          "type": "address"
        }
      ],
      "name": "OwnableUnauthorizedAccount",
      "type": "error"
    },
    {
      "inputs": [
        {
          "internalType": "address",
          "name": "token",
          "type": "address"
        }
      ],
      "name": "SafeERC20FailedOperation",
      "type": "error"
    },
    {
      "inputs": [],
      "name": "Unauthorized",
      "type": "error"
    },
    {
      "anonymous": false,
      "inputs": [
        {
          "indexed": true,
          "internalType": "address",
          "name": "to",
          "type": "address"
        },
        {
          "indexed": false,
          "internalType": "uint256",
          "name": "amount",
          "type": "uint256"
        }
      ],
      "name": "CeloRescued",
      "type": "event"
    },
    {
      "anonymous": false,
      "inputs": [
        {
          "indexed": true,
          "internalType": "address",
          "name": "factory",
          "type": "address"
        }
      ],
      "name": "FactorySet",
      "type": "event"
    },
    {
      "anonymous": false,
      "inputs": [
        {
          "indexed": true,
          "internalType": "address",
          "name": "previousOwner",
          "type": "address"
        },
        {
          "indexed": true,
          "internalType": "address",
          "name": "newOwner",
          "type": "address"
        }
      ],
      "name": "OwnershipTransferStarted",
      "type": "event"
    },
    {
      "anonymous": false,
      "inputs": [
        {
          "indexed": true,
          "internalType": "address",
          "name": "previousOwner",
          "type": "address"
        },
        {
          "indexed": true,
          "internalType": "address",
          "name": "newOwner",
          "type": "address"
        }
      ],
      "name": "OwnershipTransferred",
      "type": "event"
    },
    {
      "anonymous": false,
      "inputs": [
        {
          "indexed": false,
          "internalType": "uint256",
          "name": "amount",
          "type": "uint256"
        }
      ],
      "name": "PenaltyReceived",
      "type": "event"
    },
    {
      "anonymous": false,
      "inputs": [
        {
          "indexed": false,
          "internalType": "address",
          "name": "newContract",
          "type": "address"
        },
        {
          "indexed": false,
          "internalType": "uint256",
          "name": "amount",
          "type": "uint256"
        }
      ],
      "name": "PoolMigrated",
      "type": "event"
    },
    {
      "anonymous": false,
      "inputs": [
        {
          "indexed": true,
          "internalType": "address",
          "name": "token",
          "type": "address"
        },
        {
          "indexed": true,
          "internalType": "address",
          "name": "to",
          "type": "address"
        },
        {
          "indexed": false,
          "internalType": "uint256",
          "name": "amount",
          "type": "uint256"
        }
      ],
      "name": "TokensRescued",
      "type": "event"
    },
    {
      "inputs": [],
      "name": "acceptOwnership",
      "outputs": [],
      "stateMutability": "nonpayable",
      "type": "function"
    },
    {
      "inputs": [],
      "name": "factory",
      "outputs": [
        {
          "internalType": "address",
          "name": "",
          "type": "address"
        }
      ],
      "stateMutability": "view",
      "type": "function"
    },
    {
      "inputs": [
        {
          "internalType": "address",
          "name": "newContract",
          "type": "address"
        }
      ],
      "name": "migrate",
      "outputs": [],
      "stateMutability": "nonpayable",
      "type": "function"
    },
    {
      "inputs": [],
      "name": "owner",
      "outputs": [
        {
          "internalType": "address",
          "name": "",
          "type": "address"
        }
      ],
      "stateMutability": "view",
      "type": "function"
    },
    {
      "inputs": [],
      "name": "pendingOwner",
      "outputs": [
        {
          "internalType": "address",
          "name": "",
          "type": "address"
        }
      ],
      "stateMutability": "view",
      "type": "function"
    },
    {
      "inputs": [
        {
          "internalType": "uint256",
          "name": "amount",
          "type": "uint256"
        }
      ],
      "name": "receivePenalty",
      "outputs": [],
      "stateMutability": "nonpayable",
      "type": "function"
    },
    {
      "inputs": [],
      "name": "renounceOwnership",
      "outputs": [],
      "stateMutability": "nonpayable",
      "type": "function"
    },
    {
      "inputs": [
        {
          "internalType": "address payable",
          "name": "to",
          "type": "address"
        },
        {
          "internalType": "uint256",
          "name": "amount",
          "type": "uint256"
        }
      ],
      "name": "rescueCELO",
      "outputs": [],
      "stateMutability": "nonpayable",
      "type": "function"
    },
    {
      "inputs": [
        {
          "internalType": "address",
          "name": "tokenAddress",
          "type": "address"
        },
        {
          "internalType": "address",
          "name": "to",
          "type": "address"
        },
        {
          "internalType": "uint256",
          "name": "amount",
          "type": "uint256"
        }
      ],
      "name": "rescueTokens",
      "outputs": [],
      "stateMutability": "nonpayable",
      "type": "function"
    },
    {
      "inputs": [
        {
          "internalType": "address",
          "name": "_factory",
          "type": "address"
        }
      ],
      "name": "setFactory",
      "outputs": [],
      "stateMutability": "nonpayable",
      "type": "function"
    },
    {
      "inputs": [],
      "name": "token",
      "outputs": [
        {
          "internalType": "contract IERC20",
          "name": "",
          "type": "address"
        }
      ],
      "stateMutability": "view",
      "type": "function"
    },
    {
      "inputs": [],
      "name": "totalPenalties",
      "outputs": [
        {
          "internalType": "uint256",
          "name": "",
          "type": "uint256"
        }
      ],
      "stateMutability": "view",
      "type": "function"
    },
    {
      "inputs": [
        {
          "internalType": "address",
          "name": "newOwner",
          "type": "address"
        }
      ],
      "name": "transferOwnership",
      "outputs": [],
      "stateMutability": "nonpayable",
      "type": "function"
    }
  ],
  "bytecode": "0x60a060405234801561001057600080fd5b50604051610aef380380610aef83398101604081905261002f9161013d565b806001600160a01b03811661005e57604051631e4fbdf760e01b81526000600482015260240160405180910390fd5b610067816100b5565b506001600160a01b038216158061008557506001600160a01b038116155b156100a35760405163e6c4247b60e01b815260040160405180910390fd5b506001600160a01b0316608052610170565b600180546001600160a01b03191690556100ce816100d1565b50565b600080546001600160a01b038381166001600160a01b0319831681178455604051919092169283917f8be0079c531659141344cd1fd0a4f28419497f9722a3daafe3b4186f6b6457e09190a35050565b80516001600160a01b038116811461013857600080fd5b919050565b6000806040838503121561015057600080fd5b61015983610121565b915061016760208401610121565b90509250929050565b60805161094f6101a0600039600081816101c2015281816103b20152818161043401526104d2015261094f6000f3fe608060405234801561001057600080fd5b50600436106100cf5760003560e01c8063c45a01551161008c578063e30c397811610066578063e30c397814610186578063f1fc0abe14610197578063f2fde38b146101aa578063fc0c546a146101bd57600080fd5b8063c45a01551461014d578063ce5494bb14610160578063cea9d26f1461017357600080fd5b80635bb47808146100d45780635f95c8fa146100e9578063715018a61461010557806379ba50971461010d5780638da5cb5b14610115578063978942951461013a575b600080fd5b6100e76100e236600461082f565b6101e4565b005b6100f260035481565b6040519081526020015b60405180910390f35b6100e7610297565b6100e76102ab565b6000546001600160a01b03165b6040516001600160a01b0390911681526020016100fc565b6100e7610148366004610853565b6102f4565b600254610122906001600160a01b031681565b6100e761016e36600461082f565b61036b565b6100e761018136600461086c565b6104a1565b6001546001600160a01b0316610122565b6100e76101a53660046108ad565b610588565b6100e76101b836600461082f565b610673565b6101227f000000000000000000000000000000000000000000000000000000000000000081565b6101ec6106e4565b6001600160a01b0381166102135760405163e6c4247b60e01b815260040160405180910390fd5b6002546001600160a01b03161580159061022f57506000600354115b1561024d576040516302a98a3760e31b815260040160405180910390fd5b600280546001600160a01b0319166001600160a01b0383169081179091556040517f1edf3afd4ac789736e00d216cd88be164ddcef26a6eedcc30cdb0cb62f3741b190600090a250565b61029f6106e4565b6102a96000610711565b565b60015433906001600160a01b031681146102e85760405163118cdaa760e01b81526001600160a01b03821660048201526024015b60405180910390fd5b6102f181610711565b50565b6002546001600160a01b0316331461031e576040516282b42960e81b815260040160405180910390fd5b806003600082825461033091906108d9565b90915550506040518181527f5406b568d2d125c9eb00741a8d36522ca6914892e66566e66e1a8bd2c7d44da39060200160405180910390a150565b6103736106e4565b6001600160a01b03811661039a5760405163e6c4247b60e01b815260040160405180910390fd5b6040516370a0823160e01b81523060048201526000907f00000000000000000000000000000000000000000000000000000000000000006001600160a01b0316906370a0823190602401602060405180830381865afa158015610401573d6000803e3d6000fd5b505050506040513d601f19601f820116820180604052508101906104259190610900565b905061045b6001600160a01b037f000000000000000000000000000000000000000000000000000000000000000016838361072a565b604080516001600160a01b0384168152602081018390527f335ae205440a86b2cbe6e500aa3d66adcdd6f7b8db87f9045ffb2abc6581edd2910160405180910390a15050565b6104a96106e4565b6001600160a01b0382166104d05760405163e6c4247b60e01b815260040160405180910390fd5b7f00000000000000000000000000000000000000000000000000000000000000006001600160a01b0316836001600160a01b0316036105225760405163e6c4247b60e01b815260040160405180910390fd5b6105366001600160a01b038416838361072a565b816001600160a01b0316836001600160a01b03167f77023e19c7343ad491fd706c36335ca0e738340a91f29b1fd81e2673d44896c48360405161057b91815260200190565b60405180910390a3505050565b6105906106e4565b6001600160a01b0382166105b75760405163e6c4247b60e01b815260040160405180910390fd5b6000826001600160a01b03168260405160006040518083038185875af1925050503d8060008114610604576040519150601f19603f3d011682016040523d82523d6000602084013e610609565b606091505b505090508061062b57604051633d2cec6f60e21b815260040160405180910390fd5b826001600160a01b03167f2227dd8a809214b5a5d44250304b2bf86d6a470ba1a3b60edd625a4b986dfeaa8360405161066691815260200190565b60405180910390a2505050565b61067b6106e4565b600180546001600160a01b0383166001600160a01b031990911681179091556106ac6000546001600160a01b031690565b6001600160a01b03167f38d16b8cac22d99fc7c124b9cd0de2d3fa1faef420bfe791d8c362d765e2270060405160405180910390a350565b6000546001600160a01b031633146102a95760405163118cdaa760e01b81523360048201526024016102df565b600180546001600160a01b03191690556102f181610764565b61073783838360016107b4565b61075f57604051635274afe760e01b81526001600160a01b03841660048201526024016102df565b505050565b600080546001600160a01b038381166001600160a01b0319831681178455604051919092169283917f8be0079c531659141344cd1fd0a4f28419497f9722a3daafe3b4186f6b6457e09190a35050565b60405163a9059cbb60e01b60008181526001600160a01b038616600452602485905291602083604481808b5af19250600160005114831661080e578383151615610801573d6000823e3d81fd5b6000873b113d1516831692505b60405250949350505050565b6001600160a01b03811681146102f157600080fd5b60006020828403121561084157600080fd5b813561084c8161081a565b9392505050565b60006020828403121561086557600080fd5b5035919050565b60008060006060848603121561088157600080fd5b833561088c8161081a565b9250602084013561089c8161081a565b929592945050506040919091013590565b600080604083850312156108c057600080fd5b82356108cb8161081a565b946020939093013593505050565b808201808211156108fa57634e487b7160e01b600052601160045260246000fd5b92915050565b60006020828403121561091257600080fd5b505191905056fea2646970667358221220e8849127ffda38f53d72ab18d911a8d3cf836524dcc1a7dc78ee9de7fe3f981564736f6c634300081c0033",
  "linkReferences": {},
  "deployedLinkReferences": {}
}