{
  "_format": "hh-sol-artifact-1",
  "contractName": "PenaltyReserve",
  "sourceName": "contracts/PenaltyReserve.sol",
  "abi": [
    {
      "inputs": [
        {
          "internalType": "address",
          "name": "_token",
          "type": "address"
        },
        {
          "internalType": "address",
          "name": "initialOwner",
          "type": "address"
        }
      ],
      "stateMutability": "nonpayable",
      "type": "constructor"
    },
    {
      "inputs": [],
      "name": "FactoryAlreadySet",
      "type": "error"
    },
    {
      "inputs": [],
      "name": "InvalidAddress",
      "type": "error"
    },
    {
      "inputs": [
        {
          "internalType": "address",
          "name": "owner",
          "type": "address"
        }
      ],
      "name": "OwnableInvalidOwner",
      "type": "error"
    },
    {
      "inputs": [
        {
          "internalType": "address",
          "name": "account",
          "type": "address"
        }
      ],
      "name": "OwnableUnauthorizedAccount",
      "type": "error"
    },
    {
      "inputs": [
        {
          "internalType": "address",
          "name": "token",
          "type": "address"
        }
      ],
      "name": "SafeERC20FailedOperation",
      "type": "error"
    },
    {
      "inputs": [],
      "name": "Unauthorized",
      "type": "error"
    },
    {
      "anonymous": false,
      "inputs": [
        {
          "indexed": true,
          "internalType": "address",
          "name": "factory",
          "type": "address"
        }
      ],
      "name": "FactorySet",
      "type": "event"
    },
    {
      "anonymous": false,
      "inputs": [
        {
          "indexed": true,
          "internalType": "address",
          "name": "previousOwner",
          "type": "address"
        },
        {
          "indexed": true,
          "internalType": "address",
          "name": "newOwner",
          "type": "address"
        }
      ],
      "name": "OwnershipTransferred",
      "type": "event"
    },
    {
      "anonymous": false,
      "inputs": [
        {
          "indexed": false,
          "internalType": "uint256",
          "name": "amount",
          "type": "uint256"
        }
      ],
      "name": "PenaltyReceived",
      "type": "event"
    },
    {
      "anonymous": false,
      "inputs": [
        {
          "indexed": false,
          "internalType": "address",
          "name": "newContract",
          "type": "address"
        },
        {
          "indexed": false,
          "internalType": "uint256",
          "name": "amount",
          "type": "uint256"
        }
      ],
      "name": "PoolMigrated",
      "type": "event"
    },
    {
      "inputs": [],
      "name": "factory",
      "outputs": [
        {
          "internalType": "address",
          "name": "",
          "type": "address"
        }
      ],
      "stateMutability": "view",
      "type": "function"
    },
    {
      "inputs": [
        {
          "internalType": "address",
          "name": "newContract",
          "type": "address"
        }
      ],
      "name": "migrate",
      "outputs": [],
      "stateMutability": "nonpayable",
      "type": "function"
    },
    {
      "inputs": [],
      "name": "owner",
      "outputs": [
        {
          "internalType": "address",
          "name": "",
          "type": "address"
        }
      ],
      "stateMutability": "view",
      "type": "function"
    },
    {
      "inputs": [
        {
          "internalType": "uint256",
          "name": "amount",
          "type": "uint256"
        }
      ],
      "name": "receivePenalty",
      "outputs": [],
      "stateMutability": "nonpayable",
      "type": "function"
    },
    {
      "inputs": [],
      "name": "renounceOwnership",
      "outputs": [],
      "stateMutability": "nonpayable",
      "type": "function"
    },
    {
      "inputs": [
        {
          "internalType": "address",
          "name": "_factory",
          "type": "address"
        }
      ],
      "name": "setFactory",
      "outputs": [],
      "stateMutability": "nonpayable",
      "type": "function"
    },
    {
      "inputs": [],
      "name": "token",
      "outputs": [
        {
          "internalType": "contract IERC20",
          "name": "",
          "type": "address"
        }
      ],
      "stateMutability": "view",
      "type": "function"
    },
    {
      "inputs": [],
      "name": "totalPenalties",
      "outputs": [
        {
          "internalType": "uint256",
          "name": "",
          "type": "uint256"
        }
      ],
      "stateMutability": "view",
      "type": "function"
    },
    {
      "inputs": [
        {
          "internalType": "address",
          "name": "newOwner",
          "type": "address"
        }
      ],
      "name": "transferOwnership",
      "outputs": [],
      "stateMutability": "nonpayable",
      "type": "function"
    }
  ],
  "bytecode": "0x60a060405234801561001057600080fd5b5060405161077938038061077983398101604081905261002f91610121565b806001600160a01b03811661005e57604051631e4fbdf760e01b81526000600482015260240160405180910390fd5b610067816100b5565b506001600160a01b038216158061008557506001600160a01b038116155b156100a35760405163e6c4247b60e01b815260040160405180910390fd5b506001600160a01b0316608052610154565b600080546001600160a01b038381166001600160a01b0319831681178455604051919092169283917f8be0079c531659141344cd1fd0a4f28419497f9722a3daafe3b4186f6b6457e09190a35050565b80516001600160a01b038116811461011c57600080fd5b919050565b6000806040838503121561013457600080fd5b61013d83610105565b915061014b60208401610105565b90509250929050565b6080516105fc61017d60003960008181610147015281816102ee015261037001526105fc6000f3fe608060405234801561001057600080fd5b50600436106100935760003560e01c8063978942951161006657806397894295146100f6578063c45a015514610109578063ce5494bb1461011c578063f2fde38b1461012f578063fc0c546a1461014257600080fd5b80635bb47808146100985780635f95c8fa146100ad578063715018a6146100c95780638da5cb5b146100d1575b600080fd5b6100ab6100a636600461053d565b610169565b005b6100b660025481565b6040519081526020015b60405180910390f35b6100ab61021c565b6000546001600160a01b03165b6040516001600160a01b0390911681526020016100c0565b6100ab61010436600461056d565b610230565b6001546100de906001600160a01b031681565b6100ab61012a36600461053d565b6102a7565b6100ab61013d36600461053d565b6103dd565b6100de7f000000000000000000000000000000000000000000000000000000000000000081565b610171610420565b6001600160a01b0381166101985760405163e6c4247b60e01b815260040160405180910390fd5b6001546001600160a01b0316158015906101b457506000600254115b156101d2576040516302a98a3760e31b815260040160405180910390fd5b600180546001600160a01b0319166001600160a01b0383169081179091556040517f1edf3afd4ac789736e00d216cd88be164ddcef26a6eedcc30cdb0cb62f3741b190600090a250565b610224610420565b61022e600061044d565b565b6001546001600160a01b0316331461025a576040516282b42960e81b815260040160405180910390fd5b806002600082825461026c9190610586565b90915550506040518181527f5406b568d2d125c9eb00741a8d36522ca6914892e66566e66e1a8bd2c7d44da39060200160405180910390a150565b6102af610420565b6001600160a01b0381166102d65760405163e6c4247b60e01b815260040160405180910390fd5b6040516370a0823160e01b81523060048201526000907f00000000000000000000000000000000000000000000000000000000000000006001600160a01b0316906370a0823190602401602060405180830381865afa15801561033d573d6000803e3d6000fd5b505050506040513d601f19601f8201168201806040525081019061036191906105ad565b90506103976001600160a01b037f000000000000000000000000000000000000000000000000000000000000000016838361049d565b604080516001600160a01b0384168152602081018390527f335ae205440a86b2cbe6e500aa3d66adcdd6f7b8db87f9045ffb2abc6581edd2910160405180910390a15050565b6103e5610420565b6001600160a01b03811661041457604051631e4fbdf760e01b8152600060048201526024015b60405180910390fd5b61041d8161044d565b50565b6000546001600160a01b0316331461022e5760405163118cdaa760e01b815233600482015260240161040b565b600080546001600160a01b038381166001600160a01b0319831681178455604051919092169283917f8be0079c531659141344cd1fd0a4f28419497f9722a3daafe3b4186f6b6457e09190a35050565b6104aa83838360016104d7565b6104d257604051635274afe760e01b81526001600160a01b038416600482015260240161040b565b505050565b60405163a9059cbb60e01b60008181526001600160a01b038616600452602485905291602083604481808b5af192506001600051148316610531578383151615610524573d6000823e3d81fd5b6000873b113d1516831692505b60405250949350505050565b60006020828403121561054f57600080fd5b81356001600160a01b038116811461056657600080fd5b9392505050565b60006020828403121561057f57600080fd5b5035919050565b808201808211156105a757634e487b7160e01b600052601160045260246000fd5b92915050565b6000602082840312156105bf57600080fd5b505191905056fea2646970667358221220da6bcc61f0c7c840b141ec2bde2bb54e2bab52f44d7971a099b2f820d0b3c1e464736f6c634300081c0033",
  "linkReferences": {},
  "deployedLinkReferences": {}
}