{
  "_format": "hh-sol-artifact-1",
  "contractName": "PiggyBankFactory",
  "sourceName": "contracts/PiggyBankFactory.sol",
  "abi": [
    {
      "inputs": [
        {
          "internalType": "address",
          "name": "_token",
          "type": "address"
        },
        {
          "internalType": "address",
          "name": "_penaltyReserve",
          "type": "address"
        }
      ],
      "stateMutability": "nonpayable",
      "type": "constructor"
    },
    {
      "inputs": [],
      "name": "EnforcedPause",
      "type": "error"
    },
    {
      "inputs": [],
      "name": "ExpectedPause",
      "type": "error"
    },
    {
      "inputs": [],
      "name": "InvalidAddress",
      "type": "error"
    },
    {
      "inputs": [],
      "name": "InvalidAmount",
      "type": "error"
    },
    {
      "inputs": [],
      "name": "InvalidDeadline",
      "type": "error"
    },
    {
      "inputs": [],
      "name": "InvalidLabel",
      "type": "error"
    },
    {
      "inputs": [],
      "name": "NativeTransferFailed",
      "type": "error"
    },
    {
      "inputs": [
        {
          "internalType": "address",
          "name": "owner",
          "type": "address"
        }
      ],
      "name": "OwnableInvalidOwner",
      "type": "error"
    },
    {
      "inputs": [
        {
          "internalType": "address",
          "name": "account",
          "type": "address"
        }
      ],
      "name": "OwnableUnauthorizedAccount",
      "type": "error"
    },
    {
      "inputs": [],
      "name": "ReentrancyGuardReentrantCall",
      "type": "error"
    },
    {
      "inputs": [
        {
          "internalType": "address",
          "name": "token",
          "type": "address"
        }
      ],
      "name": "SafeERC20FailedOperation",
      "type": "error"
    },
    {
      "inputs": [],
      "name": "VaultClosed",
      "type": "error"
    },
    {
      "inputs": [],
      "name": "VaultNotFound",
      "type": "error"
    },
    {
      "anonymous": false,
      "inputs": [
        {
          "indexed": true,
          "internalType": "address",
          "name": "to",
          "type": "address"
        },
        {
          "indexed": false,
          "internalType": "uint256",
          "name": "amount",
          "type": "uint256"
        }
      ],
      "name": "CeloRescued",
      "type": "event"
    },
    {
      "anonymous": false,
      "inputs": [
        {
          "indexed": true,
          "internalType": "address",
          "name": "owner",
          "type": "address"
        },
        {
          "indexed": true,
          "internalType": "uint256",
          "name": "vaultId",
          "type": "uint256"
        },
        {
          "indexed": false,
          "internalType": "uint256",
          "name": "amount",
          "type": "uint256"
        },
        {
          "indexed": false,
          "internalType": "uint256",
          "name": "totalDeposited",
          "type": "uint256"
        }
      ],
      "name": "Deposited",
      "type": "event"
    },
    {
      "anonymous": false,
      "inputs": [
        {
          "indexed": true,
          "internalType": "address",
          "name": "previousOwner",
          "type": "address"
        },
        {
          "indexed": true,
          "internalType": "address",
          "name": "newOwner",
          "type": "address"
        }
      ],
      "name": "OwnershipTransferStarted",
      "type": "event"
    },
    {
      "anonymous": false,
      "inputs": [
        {
          "indexed": true,
          "internalType": "address",
          "name": "previousOwner",
          "type": "address"
        },
        {
          "indexed": true,
          "internalType": "address",
          "name": "newOwner",
          "type": "address"
        }
      ],
      "name": "OwnershipTransferred",
      "type": "event"
    },
    {
      "anonymous": false,
      "inputs": [
        {
          "indexed": false,
          "internalType": "address",
          "name": "account",
          "type": "address"
        }
      ],
      "name": "Paused",
      "type": "event"
    },
    {
      "anonymous": false,
      "inputs": [
        {
          "indexed": true,
          "internalType": "address",
          "name": "owner",
          "type": "address"
        },
        {
          "indexed": true,
          "internalType": "uint256",
          "name": "vaultId",
          "type": "uint256"
        },
        {
          "indexed": false,
          "internalType": "uint256",
          "name": "penaltyAmount",
          "type": "uint256"
        },
        {
          "indexed": false,
          "internalType": "address",
          "name": "reserve",
          "type": "address"
        }
      ],
      "name": "PenaltyApplied",
      "type": "event"
    },
    {
      "anonymous": false,
      "inputs": [
        {
          "indexed": true,
          "internalType": "address",
          "name": "token",
          "type": "address"
        },
        {
          "indexed": true,
          "internalType": "address",
          "name": "to",
          "type": "address"
        },
        {
          "indexed": false,
          "internalType": "uint256",
          "name": "amount",
          "type": "uint256"
        }
      ],
      "name": "TokensRescued",
      "type": "event"
    },
    {
      "anonymous": false,
      "inputs": [
        {
          "indexed": false,
          "internalType": "address",
          "name": "account",
          "type": "address"
        }
      ],
      "name": "Unpaused",
      "type": "event"
    },
    {
      "anonymous": false,
      "inputs": [
        {
          "indexed": true,
          "internalType": "address",
          "name": "owner",
          "type": "address"
        },
        {
          "indexed": true,
          "internalType": "uint256",
          "name": "vaultId",
          "type": "uint256"
        },
        {
          "indexed": false,
          "internalType": "string",
          "name": "label",
          "type": "string"
        },
        {
          "indexed": false,
          "internalType": "uint256",
          "name": "goalAmount",
          "type": "uint256"
        },
        {
          "indexed": false,
          "internalType": "uint256",
          "name": "deadline",
          "type": "uint256"
        }
      ],
      "name": "VaultCreated",
      "type": "event"
    },
    {
      "anonymous": false,
      "inputs": [
        {
          "indexed": true,
          "internalType": "address",
          "name": "owner",
          "type": "address"
        },
        {
          "indexed": true,
          "internalType": "uint256",
          "name": "vaultId",
          "type": "uint256"
        },
        {
          "indexed": false,
          "internalType": "uint256",
          "name": "userAmount",
          "type": "uint256"
        },
        {
          "indexed": false,
          "internalType": "uint256",
          "name": "penaltyAmount",
          "type": "uint256"
        },
        {
          "indexed": false,
          "internalType": "bool",
          "name": "early",
          "type": "bool"
        }
      ],
      "name": "Withdrawn",
      "type": "event"
    },
    {
      "inputs": [],
      "name": "BASE_PENALTY_BPS",
      "outputs": [
        {
          "internalType": "uint256",
          "name": "",
          "type": "uint256"
        }
      ],
      "stateMutability": "view",
      "type": "function"
    },
    {
      "inputs": [],
      "name": "BPS_DENOMINATOR",
      "outputs": [
        {
          "internalType": "uint256",
          "name": "",
          "type": "uint256"
        }
      ],
      "stateMutability": "view",
      "type": "function"
    },
    {
      "inputs": [],
      "name": "acceptOwnership",
      "outputs": [],
      "stateMutability": "nonpayable",
      "type": "function"
    },
    {
      "inputs": [
        {
          "internalType": "string",
          "name": "label",
          "type": "string"
        },
        {
          "internalType": "uint256",
          "name": "goalAmount",
          "type": "uint256"
        },
        {
          "internalType": "uint256",
          "name": "deadline",
          "type": "uint256"
        }
      ],
      "name": "createVault",
      "outputs": [
        {
          "internalType": "uint256",
          "name": "vaultId",
          "type": "uint256"
        }
      ],
      "stateMutability": "nonpayable",
      "type": "function"
    },
    {
      "inputs": [
        {
          "internalType": "uint256",
          "name": "vaultId",
          "type": "uint256"
        },
        {
          "internalType": "uint256",
          "name": "amount",
          "type": "uint256"
        }
      ],
      "name": "deposit",
      "outputs": [],
      "stateMutability": "nonpayable",
      "type": "function"
    },
    {
      "inputs": [
        {
          "internalType": "address",
          "name": "owner",
          "type": "address"
        },
        {
          "internalType": "uint256",
          "name": "vaultId",
          "type": "uint256"
        }
      ],
      "name": "getProgressBps",
      "outputs": [
        {
          "internalType": "uint256",
          "name": "",
          "type": "uint256"
        }
      ],
      "stateMutability": "view",
      "type": "function"
    },
    {
      "inputs": [
        {
          "internalType": "address",
          "name": "owner",
          "type": "address"
        },
        {
          "internalType": "uint256",
          "name": "vaultId",
          "type": "uint256"
        }
      ],
      "name": "getVault",
      "outputs": [
        {
          "components": [
            {
              "internalType": "string",
              "name": "label",
              "type": "string"
            },
            {
              "internalType": "uint256",
              "name": "goalAmount",
              "type": "uint256"
            },
            {
              "internalType": "uint256",
              "name": "deadline",
              "type": "uint256"
            },
            {
              "internalType": "uint256",
              "name": "createdAt",
              "type": "uint256"
            },
            {
              "internalType": "uint256",
              "name": "deposited",
              "type": "uint256"
            },
            {
              "internalType": "bool",
              "name": "withdrawn",
              "type": "bool"
            },
            {
              "internalType": "uint256",
              "name": "penaltyBps",
              "type": "uint256"
            }
          ],
          "internalType": "struct PiggyBankFactory.Vault",
          "name": "",
          "type": "tuple"
        }
      ],
      "stateMutability": "view",
      "type": "function"
    },
    {
      "inputs": [
        {
          "internalType": "address",
          "name": "owner",
          "type": "address"
        }
      ],
      "name": "getVaultCount",
      "outputs": [
        {
          "internalType": "uint256",
          "name": "",
          "type": "uint256"
        }
      ],
      "stateMutability": "view",
      "type": "function"
    },
    {
      "inputs": [
        {
          "internalType": "address",
          "name": "owner",
          "type": "address"
        }
      ],
      "name": "getVaults",
      "outputs": [
        {
          "components": [
            {
              "internalType": "string",
              "name": "label",
              "type": "string"
            },
            {
              "internalType": "uint256",
              "name": "goalAmount",
              "type": "uint256"
            },
            {
              "internalType": "uint256",
              "name": "deadline",
              "type": "uint256"
            },
            {
              "internalType": "uint256",
              "name": "createdAt",
              "type": "uint256"
            },
            {
              "internalType": "uint256",
              "name": "deposited",
              "type": "uint256"
            },
            {
              "internalType": "bool",
              "name": "withdrawn",
              "type": "bool"
            },
            {
              "internalType": "uint256",
              "name": "penaltyBps",
              "type": "uint256"
            }
          ],
          "internalType": "struct PiggyBankFactory.Vault[]",
          "name": "",
          "type": "tuple[]"
        }
      ],
      "stateMutability": "view",
      "type": "function"
    },
    {
      "inputs": [
        {
          "internalType": "address",
          "name": "owner",
          "type": "address"
        },
        {
          "internalType": "uint256",
          "name": "vaultId",
          "type": "uint256"
        }
      ],
      "name": "isUnlocked",
      "outputs": [
        {
          "internalType": "bool",
          "name": "",
          "type": "bool"
        }
      ],
      "stateMutability": "view",
      "type": "function"
    },
    {
      "inputs": [],
      "name": "owner",
      "outputs": [
        {
          "internalType": "address",
          "name": "",
          "type": "address"
        }
      ],
      "stateMutability": "view",
      "type": "function"
    },
    {
      "inputs": [],
      "name": "pause",
      "outputs": [],
      "stateMutability": "nonpayable",
      "type": "function"
    },
    {
      "inputs": [],
      "name": "paused",
      "outputs": [
        {
          "internalType": "bool",
          "name": "",
          "type": "bool"
        }
      ],
      "stateMutability": "view",
      "type": "function"
    },
    {
      "inputs": [],
      "name": "penaltyReserve",
      "outputs": [
        {
          "internalType": "address",
          "name": "",
          "type": "address"
        }
      ],
      "stateMutability": "view",
      "type": "function"
    },
    {
      "inputs": [],
      "name": "pendingOwner",
      "outputs": [
        {
          "internalType": "address",
          "name": "",
          "type": "address"
        }
      ],
      "stateMutability": "view",
      "type": "function"
    },
    {
      "inputs": [],
      "name": "renounceOwnership",
      "outputs": [],
      "stateMutability": "nonpayable",
      "type": "function"
    },
    {
      "inputs": [
        {
          "internalType": "address payable",
          "name": "to",
          "type": "address"
        },
        {
          "internalType": "uint256",
          "name": "amount",
          "type": "uint256"
        }
      ],
      "name": "rescueCELO",
      "outputs": [],
      "stateMutability": "nonpayable",
      "type": "function"
    },
    {
      "inputs": [
        {
          "internalType": "address",
          "name": "tokenAddress",
          "type": "address"
        },
        {
          "internalType": "address",
          "name": "to",
          "type": "address"
        },
        {
          "internalType": "uint256",
          "name": "amount",
          "type": "uint256"
        }
      ],
      "name": "rescueTokens",
      "outputs": [],
      "stateMutability": "nonpayable",
      "type": "function"
    },
    {
      "inputs": [
        {
          "internalType": "uint256",
          "name": "nextBps",
          "type": "uint256"
        }
      ],
      "name": "setBasePenaltyBps",
      "outputs": [],
      "stateMutability": "nonpayable",
      "type": "function"
    },
    {
      "inputs": [],
      "name": "token",
      "outputs": [
        {
          "internalType": "address",
          "name": "",
          "type": "address"
        }
      ],
      "stateMutability": "view",
      "type": "function"
    },
    {
      "inputs": [
        {
          "internalType": "address",
          "name": "newOwner",
          "type": "address"
        }
      ],
      "name": "transferOwnership",
      "outputs": [],
      "stateMutability": "nonpayable",
      "type": "function"
    },
    {
      "inputs": [],
      "name": "unpause",
      "outputs": [],
      "stateMutability": "nonpayable",
      "type": "function"
    },
    {
      "inputs": [
        {
          "internalType": "uint256",
          "name": "vaultId",
          "type": "uint256"
        }
      ],
      "name": "withdraw",
      "outputs": [],
      "stateMutability": "nonpayable",
      "type": "function"
    }
  ],
  "bytecode": "0x60c060405261032060025534801561001657600080fd5b50604051611c15380380611c1583398101604081905261003591610163565b60017f9b779b17422d0df92223018b32b4d1fa46e071723d6817e2486d003becc55f0055338061007f57604051631e4fbdf760e01b81526000600482015260240160405180910390fd5b610088816100db565b506001600160a01b03821615806100a657506001600160a01b038116155b156100c45760405163e6c4247b60e01b815260040160405180910390fd5b6001600160a01b039182166080521660a052610196565b600180546001600160a01b03191690556100f4816100f7565b50565b600080546001600160a01b038381166001600160a01b0319831681178455604051919092169283917f8be0079c531659141344cd1fd0a4f28419497f9722a3daafe3b4186f6b6457e09190a35050565b80516001600160a01b038116811461015e57600080fd5b919050565b6000806040838503121561017657600080fd5b61017f83610147565b915061018d60208401610147565b90509250929050565b60805160a051611a296101ec600039600081816102480152818161052d0152818161056801526105d30152600081816103110152818161050b0152818161063f015281816109e70152610bc00152611a296000f3fe608060405234801561001057600080fd5b506004361061014d5760003560e01c8063a066fabc116100c3578063e2bbb1581161007c578063e2bbb158146102c2578063e30c3978146102d5578063f1fc0abe146102e6578063f2fde38b146102f9578063fc0c546a1461030c578063fe7c9c921461033357600080fd5b8063a066fabc14610243578063c46245ea1461026a578063cea9d26f1461027d578063d606db0614610290578063d99d13f514610299578063e1a45218146102b957600080fd5b8063715018a611610115578063715018a6146101bc57806377e1296e146101c457806379ba5097146101fb5780637d72c9dd146102035780638456cb59146102165780638da5cb5b1461021e57600080fd5b80632e1a7d4d1461015257806330dbb4e4146101675780633f4ba83a1461018f5780634b793473146101975780635c975abb146101aa575b600080fd5b61016561016036600461153a565b610353565b005b61017a610175366004611568565b6106c8565b60405190151581526020015b60405180910390f35b6101656106e5565b6101656101a536600461153a565b6106f7565b600154600160a01b900460ff1661017a565b610165610732565b6101ed6101d2366004611594565b6001600160a01b031660009081526003602052604090205490565b604051908152602001610186565b610165610744565b6101ed6102113660046115b8565b61078a565b610165610940565b6000546001600160a01b03165b6040516001600160a01b039091168152602001610186565b61022b7f000000000000000000000000000000000000000000000000000000000000000081565b6101ed610278366004611568565b610950565b61016561028b366004611639565b6109b6565b6101ed60025481565b6102ac6102a7366004611568565b610a9d565b6040516101869190611711565b6101ed61271081565b6101656102d0366004611724565b610ae9565b6001546001600160a01b031661022b565b6101656102f4366004611568565b610c47565b610165610307366004611594565b610d53565b61022b7f000000000000000000000000000000000000000000000000000000000000000081565b610346610341366004611594565b610dc4565b6040516101869190611746565b61035b610f12565b610363610f2e565b600061036f3383610f59565b600581015490915060ff161561039857604051636f919cbd60e11b815260040160405180910390fd5b80600401546000036103bd5760405163162908e360e11b815260040160405180910390fd5b60058101805460ff191660011790556040805160e0810190915281546000916104b8918490829082906103ef906117ab565b80601f016020809104026020016040519081016040528092919081815260200182805461041b906117ab565b80156104685780601f1061043d57610100808354040283529160200191610468565b820191906000526020600020905b81548152906001019060200180831161044b57829003601f168201915b505050918352505060018201546020820152600282015460408201526003820154606082015260048201546080820152600582015460ff16151560a082015260069091015460c090910152610fd1565b600483015490915060009082610632576104e48460040154856002015486600301548760060154610ffe565b91508184600401546104f691906117fb565b90508115610632576105526001600160a01b037f0000000000000000000000000000000000000000000000000000000000000000167f0000000000000000000000000000000000000000000000000000000000000000846110cc565b604051639789429560e01b8152600481018390527f00000000000000000000000000000000000000000000000000000000000000006001600160a01b031690639789429590602401600060405180830381600087803b1580156105b457600080fd5b505af11580156105c8573d6000803e3d6000fd5b5050604080518581527f00000000000000000000000000000000000000000000000000000000000000006001600160a01b031660208201528893503392507f518e9c4e2bb432271603c9564554b88011094e62491551a29caeb8ecbb288b54910160405180910390a35b6106666001600160a01b037f00000000000000000000000000000000000000000000000000000000000000001633836110cc565b60408051828152602081018490528415818301529051869133917f55845e77d150a6bb68cdbcd26c664b9cc5d8e36485c3c1685d0abafbe0c7fb629181900360600190a3505050506106c560016000805160206119d483398151915255565b50565b60006106dc6106d78484611106565b610fd1565b90505b92915050565b6106ed61129e565b6106f56112cb565b565b6106ff61129e565b606481108061070f575061271081115b1561072d5760405163162908e360e11b815260040160405180910390fd5b600255565b61073a61129e565b6106f56000611320565b60015433906001600160a01b031681146107815760405163118cdaa760e01b81526001600160a01b03821660048201526024015b60405180910390fd5b6106c581611320565b6000610794610f2e565b60008490036107b657604051633d36cb8d60e01b815260040160405180910390fd5b826000036107d75760405163162908e360e11b815260040160405180910390fd5b81158015906107e65750428211155b1561080457604051631da7447960e21b815260040160405180910390fd5b503360009081526003602090815260409182902080548351610100601f89018590049094028101840190945260e0840187815290939192829190899089908190850183828082843760009201829052509385525050506020808301889052604083018790524260608401526080830182905260a0830182905260025460c09093019290925283546001810185559381522081519192600702019081906108aa9082611872565b50602082015160018201556040808301516002830155606083015160038301556080830151600483015560a083015160058301805460ff191691151591909117905560c09092015160069091015551819033907f6c16c121962f9ffaf35016246f85b47521bdc614b38443ebd9d03ac66bc225bb90610930908990899089908990611931565b60405180910390a3949350505050565b61094861129e565b6106f5611339565b60008061095d8484611106565b905080602001516000036109755760009150506106df565b60008160200151612710836080015161098e9190611971565b6109989190611988565b905061271081116109a957806109ad565b6127105b95945050505050565b6109be61129e565b6001600160a01b0382166109e55760405163e6c4247b60e01b815260040160405180910390fd5b7f00000000000000000000000000000000000000000000000000000000000000006001600160a01b0316836001600160a01b031603610a375760405163e6c4247b60e01b815260040160405180910390fd5b610a4b6001600160a01b03841683836110cc565b816001600160a01b0316836001600160a01b03167f77023e19c7343ad491fd706c36335ca0e738340a91f29b1fd81e2673d44896c483604051610a9091815260200190565b60405180910390a3505050565b610adf6040518060e001604052806060815260200160008152602001600081526020016000815260200160008152602001600015158152602001600081525090565b6106dc8383611106565b610af1610f12565b610af9610f2e565b80600003610b1a5760405163162908e360e11b815260040160405180910390fd5b6000610b263384610f59565b600581015490915060ff1615610b4f57604051636f919cbd60e11b815260040160405180910390fd5b818160040154610b5f91906119aa565b610b698342611971565b82600401548360030154610b7d9190611971565b610b8791906119aa565b610b919190611988565b816003018190555081816004016000828254610bad91906119aa565b90915550610be890506001600160a01b037f00000000000000000000000000000000000000000000000000000000000000001633308561137c565b6004810154604080518481526020810192909252849133917f91ede45f04a37a7c170f5c1207df3b6bc748dc1e04ad5e917a241d0f52feada3910160405180910390a350610c4360016000805160206119d483398151915255565b5050565b610c4f61129e565b6001600160a01b038216610c765760405163e6c4247b60e01b815260040160405180910390fd5b80600003610c975760405163162908e360e11b815260040160405180910390fd5b6000826001600160a01b03168260405160006040518083038185875af1925050503d8060008114610ce4576040519150601f19603f3d011682016040523d82523d6000602084013e610ce9565b606091505b5050905080610d0b57604051633d2cec6f60e21b815260040160405180910390fd5b826001600160a01b03167f2227dd8a809214b5a5d44250304b2bf86d6a470ba1a3b60edd625a4b986dfeaa83604051610d4691815260200190565b60405180910390a2505050565b610d5b61129e565b600180546001600160a01b0383166001600160a01b03199091168117909155610d8c6000546001600160a01b031690565b6001600160a01b03167f38d16b8cac22d99fc7c124b9cd0de2d3fa1faef420bfe791d8c362d765e2270060405160405180910390a350565b6001600160a01b0381166000908152600360209081526040808320805482518185028101850190935280835260609492939192909184015b82821015610f0757838290600052602060002090600702016040518060e0016040529081600082018054610e2f906117ab565b80601f0160208091040260200160405190810160405280929190818152602001828054610e5b906117ab565b8015610ea85780601f10610e7d57610100808354040283529160200191610ea8565b820191906000526020600020905b815481529060010190602001808311610e8b57829003601f168201915b5050509183525050600182810154602080840191909152600284015460408401526003840154606084015260048401546080840152600584015460ff16151560a084015260069093015460c09092019190915291835292019101610dfc565b505050509050919050565b610f1a6113b8565b60026000805160206119d483398151915255565b600154600160a01b900460ff16156106f55760405163d93c066560e01b815260040160405180910390fd5b6001600160a01b0382166000908152600360205260408120548210610f915760405163dee790fb60e01b815260040160405180910390fd5b6001600160a01b0383166000908152600360205260409020805483908110610fbb57610fbb6119bd565b9060005260206000209060070201905092915050565b6000816020015182608001511015806106df57506040820151158015906106df5750506040015142101590565b600083600003611026576127106110158387611971565b61101f9190611988565b90506110c4565b834210611035575060006110c4565b600061104142866117fb565b9050600061104f85876117fb565b905080600003611064576000925050506110c4565b60008161107984670de0b6b3a7640000611971565b6110839190611988565b90506000670de0b6b3a764000061109a8388611971565b6110a49190611988565b90506127106110b3828b611971565b6110bd9190611988565b9450505050505b949350505050565b6110d983838360016113e8565b61110157604051635274afe760e01b81526001600160a01b0384166004820152602401610778565b505050565b6111486040518060e001604052806060815260200160008152602001600081526020016000815260200160008152602001600015158152602001600081525090565b6001600160a01b03831660009081526003602052604090205482106111805760405163dee790fb60e01b815260040160405180910390fd5b6001600160a01b03831660009081526003602052604090208054839081106111aa576111aa6119bd565b90600052602060002090600702016040518060e00160405290816000820180546111d3906117ab565b80601f01602080910402602001604051908101604052809291908181526020018280546111ff906117ab565b801561124c5780601f106112215761010080835404028352916020019161124c565b820191906000526020600020905b81548152906001019060200180831161122f57829003601f168201915b505050918352505060018201546020820152600282015460408201526003820154606082015260048201546080820152600582015460ff16151560a082015260069091015460c0909101529392505050565b6000546001600160a01b031633146106f55760405163118cdaa760e01b8152336004820152602401610778565b6112d361144e565b6001805460ff60a01b191690557f5db9ee0a495bf2e6ff9c91a7834c1ba4fdd244a5e8aa4e537bd38aeae4b073aa335b6040516001600160a01b03909116815260200160405180910390a1565b600180546001600160a01b03191690556106c581611478565b611341610f2e565b6001805460ff60a01b1916600160a01b1790557f62e78cea01bee320cd4e420270b5ea74000d11b0c9f74754ebdbfc544b05a2586113033390565b61138a8484848460016114c8565b6113b257604051635274afe760e01b81526001600160a01b0385166004820152602401610778565b50505050565b6000805160206119d4833981519152546002036106f557604051633ee5aeb560e01b815260040160405180910390fd5b60405163a9059cbb60e01b60008181526001600160a01b038616600452602485905291602083604481808b5af192506001600051148316611442578383151615611435573d6000823e3d81fd5b6000873b113d1516831692505b60405250949350505050565b600154600160a01b900460ff166106f557604051638dfc202b60e01b815260040160405180910390fd5b600080546001600160a01b038381166001600160a01b0319831681178455604051919092169283917f8be0079c531659141344cd1fd0a4f28419497f9722a3daafe3b4186f6b6457e09190a35050565b6040516323b872dd60e01b60008181526001600160a01b038781166004528616602452604485905291602083606481808c5af19250600160005114831661152857838315161561151b573d6000823e3d81fd5b6000883b113d1516831692505b60405250600060605295945050505050565b60006020828403121561154c57600080fd5b5035919050565b6001600160a01b03811681146106c557600080fd5b6000806040838503121561157b57600080fd5b823561158681611553565b946020939093013593505050565b6000602082840312156115a657600080fd5b81356115b181611553565b9392505050565b600080600080606085870312156115ce57600080fd5b843567ffffffffffffffff8111156115e557600080fd5b8501601f810187136115f657600080fd5b803567ffffffffffffffff81111561160d57600080fd5b87602082840101111561161f57600080fd5b602091820198909750908601359560400135945092505050565b60008060006060848603121561164e57600080fd5b833561165981611553565b9250602084013561166981611553565b929592945050506040919091013590565b6000815160e0845280518060e086015260005b818110156116ab57602081840181015161010088840101520161168d565b50600061010082870101526020840151602086015260408401516040860152606084015160608601526080840151608086015260a084015191506116f360a086018315159052565b60c093840151938501939093525050601f01601f1916016101000190565b6020815260006106dc602083018461167a565b6000806040838503121561173757600080fd5b50508035926020909101359150565b6000602082016020835280845180835260408501915060408160051b86010192506020860160005b8281101561179f57603f1987860301845261178a85835161167a565b9450602093840193919091019060010161176e565b50929695505050505050565b600181811c908216806117bf57607f821691505b6020821081036117df57634e487b7160e01b600052602260045260246000fd5b50919050565b634e487b7160e01b600052601160045260246000fd5b818103818111156106df576106df6117e5565b634e487b7160e01b600052604160045260246000fd5b601f82111561110157806000526020600020601f840160051c8101602085101561184b5750805b601f840160051c820191505b8181101561186b5760008155600101611857565b5050505050565b815167ffffffffffffffff81111561188c5761188c61180e565b6118a08161189a84546117ab565b84611824565b6020601f8211600181146118d457600083156118bc5750848201515b600019600385901b1c1916600184901b17845561186b565b600084815260208120601f198516915b8281101561190457878501518255602094850194600190920191016118e4565b50848210156119225786840151600019600387901b60f8161c191681555b50505050600190811b01905550565b606081528360608201528385608083013760006080858301015260006080601f19601f870116830101905083602083015282604083015295945050505050565b80820281158282048414176106df576106df6117e5565b6000826119a557634e487b7160e01b600052601260045260246000fd5b500490565b808201808211156106df576106df6117e5565b634e487b7160e01b600052603260045260246000fdfe9b779b17422d0df92223018b32b4d1fa46e071723d6817e2486d003becc55f00a264697066735822122078150fb18ef91bac154dcaf0a5dc4141db4868d3c91a2531faecef922f08867e64736f6c634300081c0033",
  "linkReferences": {},
  "deployedLinkReferences": {}
}