{
  "_format": "hh-sol-artifact-1",
  "contractName": "PiggyBankFactory",
  "sourceName": "contracts/PiggyBankFactory.sol",
  "abi": [
    {
      "inputs": [
        {
          "internalType": "address",
          "name": "_token",
          "type": "address"
        },
        {
          "internalType": "address",
          "name": "_penaltyReserve",
          "type": "address"
        }
      ],
      "stateMutability": "nonpayable",
      "type": "constructor"
    },
    {
      "inputs": [],
      "name": "InvalidAddress",
      "type": "error"
    },
    {
      "inputs": [],
      "name": "InvalidAmount",
      "type": "error"
    },
    {
      "inputs": [],
      "name": "InvalidDeadline",
      "type": "error"
    },
    {
      "inputs": [],
      "name": "InvalidLabel",
      "type": "error"
    },
    {
      "inputs": [
        {
          "internalType": "address",
          "name": "owner",
          "type": "address"
        }
      ],
      "name": "OwnableInvalidOwner",
      "type": "error"
    },
    {
      "inputs": [
        {
          "internalType": "address",
          "name": "account",
          "type": "address"
        }
      ],
      "name": "OwnableUnauthorizedAccount",
      "type": "error"
    },
    {
      "inputs": [],
      "name": "ReentrancyGuardReentrantCall",
      "type": "error"
    },
    {
      "inputs": [
        {
          "internalType": "address",
          "name": "token",
          "type": "address"
        }
      ],
      "name": "SafeERC20FailedOperation",
      "type": "error"
    },
    {
      "inputs": [],
      "name": "VaultClosed",
      "type": "error"
    },
    {
      "inputs": [],
      "name": "VaultNotFound",
      "type": "error"
    },
    {
      "anonymous": false,
      "inputs": [
        {
          "indexed": true,
          "internalType": "address",
          "name": "owner",
          "type": "address"
        },
        {
          "indexed": true,
          "internalType": "uint256",
          "name": "vaultId",
          "type": "uint256"
        },
        {
          "indexed": false,
          "internalType": "uint256",
          "name": "amount",
          "type": "uint256"
        },
        {
          "indexed": false,
          "internalType": "uint256",
          "name": "totalDeposited",
          "type": "uint256"
        }
      ],
      "name": "Deposited",
      "type": "event"
    },
    {
      "anonymous": false,
      "inputs": [
        {
          "indexed": true,
          "internalType": "address",
          "name": "previousOwner",
          "type": "address"
        },
        {
          "indexed": true,
          "internalType": "address",
          "name": "newOwner",
          "type": "address"
        }
      ],
      "name": "OwnershipTransferred",
      "type": "event"
    },
    {
      "anonymous": false,
      "inputs": [
        {
          "indexed": true,
          "internalType": "address",
          "name": "owner",
          "type": "address"
        },
        {
          "indexed": true,
          "internalType": "uint256",
          "name": "vaultId",
          "type": "uint256"
        },
        {
          "indexed": false,
          "internalType": "uint256",
          "name": "penaltyAmount",
          "type": "uint256"
        },
        {
          "indexed": false,
          "internalType": "address",
          "name": "reserve",
          "type": "address"
        }
      ],
      "name": "PenaltyApplied",
      "type": "event"
    },
    {
      "anonymous": false,
      "inputs": [
        {
          "indexed": true,
          "internalType": "address",
          "name": "owner",
          "type": "address"
        },
        {
          "indexed": true,
          "internalType": "uint256",
          "name": "vaultId",
          "type": "uint256"
        },
        {
          "indexed": false,
          "internalType": "string",
          "name": "label",
          "type": "string"
        },
        {
          "indexed": false,
          "internalType": "uint256",
          "name": "goalAmount",
          "type": "uint256"
        },
        {
          "indexed": false,
          "internalType": "uint256",
          "name": "deadline",
          "type": "uint256"
        }
      ],
      "name": "VaultCreated",
      "type": "event"
    },
    {
      "anonymous": false,
      "inputs": [
        {
          "indexed": true,
          "internalType": "address",
          "name": "owner",
          "type": "address"
        },
        {
          "indexed": true,
          "internalType": "uint256",
          "name": "vaultId",
          "type": "uint256"
        },
        {
          "indexed": false,
          "internalType": "uint256",
          "name": "userAmount",
          "type": "uint256"
        },
        {
          "indexed": false,
          "internalType": "uint256",
          "name": "penaltyAmount",
          "type": "uint256"
        },
        {
          "indexed": false,
          "internalType": "bool",
          "name": "early",
          "type": "bool"
        }
      ],
      "name": "Withdrawn",
      "type": "event"
    },
    {
      "inputs": [],
      "name": "BASE_PENALTY_BPS",
      "outputs": [
        {
          "internalType": "uint256",
          "name": "",
          "type": "uint256"
        }
      ],
      "stateMutability": "view",
      "type": "function"
    },
    {
      "inputs": [],
      "name": "BPS_DENOMINATOR",
      "outputs": [
        {
          "internalType": "uint256",
          "name": "",
          "type": "uint256"
        }
      ],
      "stateMutability": "view",
      "type": "function"
    },
    {
      "inputs": [
        {
          "internalType": "string",
          "name": "label",
          "type": "string"
        },
        {
          "internalType": "uint256",
          "name": "goalAmount",
          "type": "uint256"
        },
        {
          "internalType": "uint256",
          "name": "deadline",
          "type": "uint256"
        }
      ],
      "name": "createVault",
      "outputs": [
        {
          "internalType": "uint256",
          "name": "vaultId",
          "type": "uint256"
        }
      ],
      "stateMutability": "nonpayable",
      "type": "function"
    },
    {
      "inputs": [
        {
          "internalType": "uint256",
          "name": "vaultId",
          "type": "uint256"
        },
        {
          "internalType": "uint256",
          "name": "amount",
          "type": "uint256"
        }
      ],
      "name": "deposit",
      "outputs": [],
      "stateMutability": "nonpayable",
      "type": "function"
    },
    {
      "inputs": [
        {
          "internalType": "address",
          "name": "owner",
          "type": "address"
        },
        {
          "internalType": "uint256",
          "name": "vaultId",
          "type": "uint256"
        }
      ],
      "name": "getProgressBps",
      "outputs": [
        {
          "internalType": "uint256",
          "name": "",
          "type": "uint256"
        }
      ],
      "stateMutability": "view",
      "type": "function"
    },
    {
      "inputs": [
        {
          "internalType": "address",
          "name": "owner",
          "type": "address"
        },
        {
          "internalType": "uint256",
          "name": "vaultId",
          "type": "uint256"
        }
      ],
      "name": "getVault",
      "outputs": [
        {
          "components": [
            {
              "internalType": "string",
              "name": "label",
              "type": "string"
            },
            {
              "internalType": "uint256",
              "name": "goalAmount",
              "type": "uint256"
            },
            {
              "internalType": "uint256",
              "name": "deadline",
              "type": "uint256"
            },
            {
              "internalType": "uint256",
              "name": "createdAt",
              "type": "uint256"
            },
            {
              "internalType": "uint256",
              "name": "deposited",
              "type": "uint256"
            },
            {
              "internalType": "bool",
              "name": "withdrawn",
              "type": "bool"
            }
          ],
          "internalType": "struct PiggyBankFactory.Vault",
          "name": "",
          "type": "tuple"
        }
      ],
      "stateMutability": "view",
      "type": "function"
    },
    {
      "inputs": [
        {
          "internalType": "address",
          "name": "owner",
          "type": "address"
        }
      ],
      "name": "getVaultCount",
      "outputs": [
        {
          "internalType": "uint256",
          "name": "",
          "type": "uint256"
        }
      ],
      "stateMutability": "view",
      "type": "function"
    },
    {
      "inputs": [
        {
          "internalType": "address",
          "name": "owner",
          "type": "address"
        }
      ],
      "name": "getVaults",
      "outputs": [
        {
          "components": [
            {
              "internalType": "string",
              "name": "label",
              "type": "string"
            },
            {
              "internalType": "uint256",
              "name": "goalAmount",
              "type": "uint256"
            },
            {
              "internalType": "uint256",
              "name": "deadline",
              "type": "uint256"
            },
            {
              "internalType": "uint256",
              "name": "createdAt",
              "type": "uint256"
            },
            {
              "internalType": "uint256",
              "name": "deposited",
              "type": "uint256"
            },
            {
              "internalType": "bool",
              "name": "withdrawn",
              "type": "bool"
            }
          ],
          "internalType": "struct PiggyBankFactory.Vault[]",
          "name": "",
          "type": "tuple[]"
        }
      ],
      "stateMutability": "view",
      "type": "function"
    },
    {
      "inputs": [
        {
          "internalType": "address",
          "name": "owner",
          "type": "address"
        },
        {
          "internalType": "uint256",
          "name": "vaultId",
          "type": "uint256"
        }
      ],
      "name": "isUnlocked",
      "outputs": [
        {
          "internalType": "bool",
          "name": "",
          "type": "bool"
        }
      ],
      "stateMutability": "view",
      "type": "function"
    },
    {
      "inputs": [],
      "name": "owner",
      "outputs": [
        {
          "internalType": "address",
          "name": "",
          "type": "address"
        }
      ],
      "stateMutability": "view",
      "type": "function"
    },
    {
      "inputs": [],
      "name": "penaltyReserve",
      "outputs": [
        {
          "internalType": "address",
          "name": "",
          "type": "address"
        }
      ],
      "stateMutability": "view",
      "type": "function"
    },
    {
      "inputs": [],
      "name": "renounceOwnership",
      "outputs": [],
      "stateMutability": "nonpayable",
      "type": "function"
    },
    {
      "inputs": [
        {
          "internalType": "uint256",
          "name": "nextBps",
          "type": "uint256"
        }
      ],
      "name": "setBasePenaltyBps",
      "outputs": [],
      "stateMutability": "nonpayable",
      "type": "function"
    },
    {
      "inputs": [],
      "name": "token",
      "outputs": [
        {
          "internalType": "address",
          "name": "",
          "type": "address"
        }
      ],
      "stateMutability": "view",
      "type": "function"
    },
    {
      "inputs": [
        {
          "internalType": "address",
          "name": "newOwner",
          "type": "address"
        }
      ],
      "name": "transferOwnership",
      "outputs": [],
      "stateMutability": "nonpayable",
      "type": "function"
    },
    {
      "inputs": [
        {
          "internalType": "uint256",
          "name": "vaultId",
          "type": "uint256"
        }
      ],
      "name": "withdraw",
      "outputs": [],
      "stateMutability": "nonpayable",
      "type": "function"
    }
  ],
  "bytecode": "0x60c060405261032060015534801561001657600080fd5b5060405161170a38038061170a83398101604081905261003591610147565b60017f9b779b17422d0df92223018b32b4d1fa46e071723d6817e2486d003becc55f0055338061007f57604051631e4fbdf760e01b81526000600482015260240160405180910390fd5b610088816100db565b506001600160a01b03821615806100a657506001600160a01b038116155b156100c45760405163e6c4247b60e01b815260040160405180910390fd5b6001600160a01b039182166080521660a05261017a565b600080546001600160a01b038381166001600160a01b0319831681178455604051919092169283917f8be0079c531659141344cd1fd0a4f28419497f9722a3daafe3b4186f6b6457e09190a35050565b80516001600160a01b038116811461014257600080fd5b919050565b6000806040838503121561015a57600080fd5b6101638361012b565b91506101716020840161012b565b90509250929050565b60805160a0516115416101c9600039600081816101d101528181610468015281816104a3015261050e015260008181610263015281816104460152818161057a015261097f01526115416000f3fe608060405234801561001057600080fd5b50600436106101005760003560e01c8063c46245ea11610097578063e2bbb15811610066578063e2bbb15814610238578063f2fde38b1461024b578063fc0c546a1461025e578063fe7c9c921461028557600080fd5b8063c46245ea146101f3578063d606db0614610206578063d99d13f51461020f578063e1a452181461022f57600080fd5b806377e1296e116100d357806377e1296e1461015d5780637d72c9dd146101945780638da5cb5b146101a7578063a066fabc146101cc57600080fd5b80632e1a7d4d1461010557806330dbb4e41461011a5780634b79347314610142578063715018a614610155575b600080fd5b6101186101133660046110a2565b6102a5565b005b61012d6101283660046110d7565b610603565b60405190151581526020015b60405180910390f35b6101186101503660046110a2565b610620565b61011861065b565b61018661016b366004611101565b6001600160a01b031660009081526002602052604090205490565b604051908152602001610139565b6101866101a236600461111c565b61066f565b6000546001600160a01b03165b6040516001600160a01b039091168152602001610139565b6101b47f000000000000000000000000000000000000000000000000000000000000000081565b6101866102013660046110d7565b610805565b61018660015481565b61022261021d3660046110d7565b61086b565b6040516101399190611229565b61018661271081565b61011861024636600461123c565b6108b0565b610118610259366004611101565b610a06565b6101b47f000000000000000000000000000000000000000000000000000000000000000081565b610298610293366004611101565b610a46565b604051610139919061125e565b6102ad610b8a565b60006102b93383610ba6565b600581015490915060ff16156102e257604051636f919cbd60e11b815260040160405180910390fd5b80600401546000036103075760405163162908e360e11b815260040160405180910390fd5b60058101805460ff191660011790556040805160c0810190915281546000916103f891849082908290610339906112c3565b80601f0160208091040260200160405190810160405280929190818152602001828054610365906112c3565b80156103b25780601f10610387576101008083540402835291602001916103b2565b820191906000526020600020905b81548152906001019060200180831161039557829003601f168201915b50505091835250506001820154602082015260028201546040820152600382015460608201526004820154608082015260059091015460ff16151560a090910152610c1e565b60048301549091506000908261056d5761041f846004015485600201548660030154610c4b565b91508184600401546104319190611313565b9050811561056d5761048d6001600160a01b037f0000000000000000000000000000000000000000000000000000000000000000167f000000000000000000000000000000000000000000000000000000000000000084610d20565b604051639789429560e01b8152600481018390527f00000000000000000000000000000000000000000000000000000000000000006001600160a01b031690639789429590602401600060405180830381600087803b1580156104ef57600080fd5b505af1158015610503573d6000803e3d6000fd5b5050604080518581527f00000000000000000000000000000000000000000000000000000000000000006001600160a01b031660208201528893503392507f518e9c4e2bb432271603c9564554b88011094e62491551a29caeb8ecbb288b54910160405180910390a35b6105a16001600160a01b037f0000000000000000000000000000000000000000000000000000000000000000163383610d20565b60408051828152602081018490528415818301529051869133917f55845e77d150a6bb68cdbcd26c664b9cc5d8e36485c3c1685d0abafbe0c7fb629181900360600190a35050505061060060016000805160206114ec83398151915255565b50565b60006106176106128484610d5a565b610c1e565b90505b92915050565b610628610ee1565b6064811080610638575061271081115b156106565760405163162908e360e11b815260040160405180910390fd5b600155565b610663610ee1565b61066d6000610f0e565b565b600083810361069157604051633d36cb8d60e01b815260040160405180910390fd5b826000036106b25760405163162908e360e11b815260040160405180910390fd5b81158015906106c15750428211155b156106df57604051631da7447960e21b815260040160405180910390fd5b50336000908152600260209081526040918290208054835160e0601f89018590049094028101840190945260c0840187815290939192829190899089908190850183828082843760009201829052509385525050506020808301889052604083018790524260608401526080830182905260a09092018190528354600181018555938152208151919260060201908190610779908261138a565b50602082015160018201556040808301516002830155606083015160038301556080830151600483015560a0909201516005909101805460ff191691151591909117905551819033907f6c16c121962f9ffaf35016246f85b47521bdc614b38443ebd9d03ac66bc225bb906107f5908990899089908990611449565b60405180910390a3949350505050565b6000806108128484610d5a565b9050806020015160000361082a57600091505061061a565b6000816020015161271083608001516108439190611489565b61084d91906114a0565b9050612710811161085e5780610862565b6127105b95945050505050565b6108a66040518060c0016040528060608152602001600081526020016000815260200160008152602001600081526020016000151581525090565b6106178383610d5a565b6108b8610b8a565b806000036108d95760405163162908e360e11b815260040160405180910390fd5b60006108e53384610ba6565b600581015490915060ff161561090e57604051636f919cbd60e11b815260040160405180910390fd5b81816004015461091e91906114c2565b6109288342611489565b8260040154836003015461093c9190611489565b61094691906114c2565b61095091906114a0565b81600301819055508181600401600082825461096c91906114c2565b909155506109a790506001600160a01b037f000000000000000000000000000000000000000000000000000000000000000016333085610f5e565b6004810154604080518481526020810192909252849133917f91ede45f04a37a7c170f5c1207df3b6bc748dc1e04ad5e917a241d0f52feada3910160405180910390a350610a0260016000805160206114ec83398151915255565b5050565b610a0e610ee1565b6001600160a01b038116610a3d57604051631e4fbdf760e01b8152600060048201526024015b60405180910390fd5b61060081610f0e565b6001600160a01b0381166000908152600260209081526040808320805482518185028101850190935280835260609492939192909184015b82821015610b7f57838290600052602060002090600602016040518060c0016040529081600082018054610ab1906112c3565b80601f0160208091040260200160405190810160405280929190818152602001828054610add906112c3565b8015610b2a5780601f10610aff57610100808354040283529160200191610b2a565b820191906000526020600020905b815481529060010190602001808311610b0d57829003601f168201915b505050918352505060018281015460208084019190915260028401546040840152600384015460608401526004840154608084015260059093015460ff16151560a09092019190915291835292019101610a7e565b505050509050919050565b610b92610f9a565b60026000805160206114ec83398151915255565b6001600160a01b0382166000908152600260205260408120548210610bde5760405163dee790fb60e01b815260040160405180910390fd5b6001600160a01b0383166000908152600260205260409020805483908110610c0857610c086114d5565b9060005260206000209060060201905092915050565b60008160200151826080015110158061061a575060408201511580159061061a5750506040015142101590565b600082600003610c775761271060015485610c669190611489565b610c7091906114a0565b9050610d19565b824210610c8657506000610d19565b6000610c924285611313565b90506000610ca08486611313565b905080600003610cb557600092505050610d19565b600081610cca84670de0b6b3a7640000611489565b610cd491906114a0565b90506000670de0b6b3a764000082600154610cef9190611489565b610cf991906114a0565b9050612710610d08828a611489565b610d1291906114a0565b9450505050505b9392505050565b610d2d8383836001610fca565b610d5557604051635274afe760e01b81526001600160a01b0384166004820152602401610a34565b505050565b610d956040518060c0016040528060608152602001600081526020016000815260200160008152602001600081526020016000151581525090565b6001600160a01b0383166000908152600260205260409020548210610dcd5760405163dee790fb60e01b815260040160405180910390fd5b6001600160a01b0383166000908152600260205260409020805483908110610df757610df76114d5565b90600052602060002090600602016040518060c0016040529081600082018054610e20906112c3565b80601f0160208091040260200160405190810160405280929190818152602001828054610e4c906112c3565b8015610e995780601f10610e6e57610100808354040283529160200191610e99565b820191906000526020600020905b815481529060010190602001808311610e7c57829003601f168201915b50505091835250506001820154602082015260028201546040820152600382015460608201526004820154608082015260059091015460ff16151560a0909101529392505050565b6000546001600160a01b0316331461066d5760405163118cdaa760e01b8152336004820152602401610a34565b600080546001600160a01b038381166001600160a01b0319831681178455604051919092169283917f8be0079c531659141344cd1fd0a4f28419497f9722a3daafe3b4186f6b6457e09190a35050565b610f6c848484846001611030565b610f9457604051635274afe760e01b81526001600160a01b0385166004820152602401610a34565b50505050565b6000805160206114ec8339815191525460020361066d57604051633ee5aeb560e01b815260040160405180910390fd5b60405163a9059cbb60e01b60008181526001600160a01b038616600452602485905291602083604481808b5af192506001600051148316611024578383151615611017573d6000823e3d81fd5b6000873b113d1516831692505b60405250949350505050565b6040516323b872dd60e01b60008181526001600160a01b038781166004528616602452604485905291602083606481808c5af192506001600051148316611090578383151615611083573d6000823e3d81fd5b6000883b113d1516831692505b60405250600060605295945050505050565b6000602082840312156110b457600080fd5b5035919050565b80356001600160a01b03811681146110d257600080fd5b919050565b600080604083850312156110ea57600080fd5b6110f3836110bb565b946020939093013593505050565b60006020828403121561111357600080fd5b610617826110bb565b6000806000806060858703121561113257600080fd5b843567ffffffffffffffff81111561114957600080fd5b8501601f8101871361115a57600080fd5b803567ffffffffffffffff81111561117157600080fd5b87602082840101111561118357600080fd5b602091820198909750908601359560400135945092505050565b6000815160c0845280518060c086015260005b818110156111cd57602081840181015160e08884010152016111b0565b50600060e082870101526020840151602086015260408401516040860152606084015160608601526080840151608086015260a0840151915061121460a086018315159052565b601f01601f19169390930160e0019392505050565b602081526000610617602083018461119d565b6000806040838503121561124f57600080fd5b50508035926020909101359150565b6000602082016020835280845180835260408501915060408160051b86010192506020860160005b828110156112b757603f198786030184526112a285835161119d565b94506020938401939190910190600101611286565b50929695505050505050565b600181811c908216806112d757607f821691505b6020821081036112f757634e487b7160e01b600052602260045260246000fd5b50919050565b634e487b7160e01b600052601160045260246000fd5b8181038181111561061a5761061a6112fd565b634e487b7160e01b600052604160045260246000fd5b601f821115610d5557806000526020600020601f840160051c810160208510156113635750805b601f840160051c820191505b81811015611383576000815560010161136f565b5050505050565b815167ffffffffffffffff8111156113a4576113a4611326565b6113b8816113b284546112c3565b8461133c565b6020601f8211600181146113ec57600083156113d45750848201515b600019600385901b1c1916600184901b178455611383565b600084815260208120601f198516915b8281101561141c57878501518255602094850194600190920191016113fc565b508482101561143a5786840151600019600387901b60f8161c191681555b50505050600190811b01905550565b606081528360608201528385608083013760006080858301015260006080601f19601f870116830101905083602083015282604083015295945050505050565b808202811582820484141761061a5761061a6112fd565b6000826114bd57634e487b7160e01b600052601260045260246000fd5b500490565b8082018082111561061a5761061a6112fd565b634e487b7160e01b600052603260045260246000fdfe9b779b17422d0df92223018b32b4d1fa46e071723d6817e2486d003becc55f00a2646970667358221220b653f718788b13a0c6dfea7700a1664a559383c591a685b27fdad37416a637ea64736f6c634300081c0033",
  "linkReferences": {},
  "deployedLinkReferences": {}
}